:100000000C9483000C94B4000C94B4000C94B400D1
:100010000C94B4000C94B4000C94B4000C94B40090
:100020000C94B4000C94B4000C94B4000C94B40080
:100030000C94B4000C94B4000C94B4000C94B40070
:100040000C94B4000C94B4000C94B4000C94B40060
:100050000C94B4000C94B4000C94B4000C94E5001F
:100060000C94B4000C9490020C9480030C94B40093
:100070000C94B4000C94B4000C94B4000C94B40030
:100080000C94B4000C94B4000C94B4000C94B40020
:100090000C94C4020C94BF030C94B4000C94B400F0
:1000A0000C94B4000C94B4000C94B4000C94B40000
:1000B0000C94B4000C94B4000C94B4000C94B400F0
:1000C0000C94B4000C94B4000C94B4000C94F8029A
:1000D0000C94FE030C94B4000C942C030C943D047B
:1000E0000C94B4000C9408020C94D6050C940405EE
:1000F0000C9428020C94DC010C945F030C94EC012A
:100100000C943302040511241FBECFEFD1E2DEBFF1
:10011000CDBF00E00CBF12E0A0E0B2E0E0EAF2E107
:1001200000E00BBF02C007900D92A631B107D9F7CE
:1001300024E0A6E1B2E001C01D92AB3FB207E1F7B7
:1001400010E0C3E8D0E000E006C021970109802F4D
:10015000FE010E946F06C238D10780E00807A9F7A8
:100160000E9440060C944E090C94000040E855E2B1
:1001700060E070E089EB92E00C947C0480911602C0
:1001800090911702019690931702809316029F9305
:100190008F9380E092E09F938F9388E192E09F930A
:1001A0008F930E94770668E172E089EB92E00E94EB
:1001B0002E060F900F900F900F900F900F9068EEFB
:1001C00073E080E090E00C9454011F920F920FB600
:1001D0000F9211242F933F938F939F93AF93BF93CD
:1001E00080914B0290914C02A0914D02B0914E0231
:1001F00030914A0223E0230F2D3720F40196A11DF0
:10020000B11D05C026E8230F0296A11DB11D209344
:100210004A0280934B0290934C02A0934D02B093FC
:100220004E0280914F0290915002A0915102B091E4
:1002300052020196A11DB11D80934F02909350026E
:10024000A0935102B0935202BF91AF919F918F91B1
:100250003F912F910F900FBE0F901F9018953FB7B1
:10026000F89480914F0290915002A0915102B09168
:10027000520226B5A89B05C02F3F19F00196A11D7B
:10028000B11D3FBFBA2FA92F982F8827820F911D2C
:10029000A11DB11DBC01CD0142E0660F771F881F73
:1002A000991F4A95D1F70895CF92DF92EF92FF926E
:1002B000CF93DF936B017C010E942F01EB01C114EE
:1002C000D104E104F10479F00E942F016C1B7D0B35
:1002D000683E7340A0F381E0C81AD108E108F10834
:1002E000C851DC4FECCFDF91CF91FF90EF90DF90C2
:1002F000CF900895789484B5826084BD84B5816080
:1003000084BD85B5826085BD85B5816085BDEEE61D
:10031000F0E0808181608083E1E8F0E010828081FC
:1003200082608083808181608083E0E8F0E080816A
:1003300081608083E1EBF0E0808184608083E0EB8A
:10034000F0E0808181608083E1E9F0E0808182607B
:100350008083808181608083E0E9F0E0808181603A
:100360008083E1EAF0E08081826080838081816027
:100370008083E0EAF0E0808181608083E1E2F1E067
:10038000808182608083808181608083E0E2F1E00F
:10039000808181608083EAE7F0E0808184608083EF
:1003A0008081826080838081816080838081806899
:1003B00080831092C1000895FC0124853585F901E0
:1003C000E05CFF4F80819181329620813181821BD8
:1003D000930B8F7399270895DC011C96ED91FC9186
:1003E0001D97DF01A05CBF4F2D913C911197129694
:1003F0008D919C9111972817390739F08D919C9117
:10040000E80FF91F808190E008958FEF9FEF089526
:10041000FC01A485B585FD01E05CFF4F20813181A1
:100420003296808191812817390779F080819181F6
:10043000A80FB91F8C91208131812F5F3F4F2F73FF
:1004400033273183208390E008958FEF9FEF089545
:10045000FC0181A1882329F0A489B5898C9186FFAC
:10046000FBCF11A208950F931F93CF93DF93FC014D
:10047000A685B7858D01005C1F4FE80188819981B1
:1004800001968F739927AD014E5B5F4FEA0128817A
:10049000398182179307D1F3E80128813981A20FAE
:1004A000B31F6C93A685B785A05CBF4F11969C9334
:1004B0008E93A689B7892C9181E090E0078C02C0C9
:1004C000880F991F0A94E2F7822B8C9381E081A315
:1004D0000488F589E02D80818064808381E090E04C
:1004E000DF91CF911F910F910895FB01E05CFF4FC9
:1004F000208131812F5F3F4F2F733327DB01AE5BAC
:10050000BF4F4D915C912417350741F040815181D7
:10051000DB01A40FB51F8C933183208308950895C8
:100520001F920F920FB60F9211240BB60F922F93BA
:100530003F934F935F936F937F938F939F93AF936B
:10054000BF93EF93FF938091C00082FD07C080911D
:10055000C60067EB74E00E94750202C08091C6007D
:10056000FF91EF91BF91AF919F918F917F916F918B
:100570005F914F913F912F910F900BBE0F900FBE47
:100580000F901F90189508951F920F920FB60F921B
:1005900011240BB60F922F933F934F935F936F935A
:1005A0007F938F939F93AF93BF93EF93FF9380912C
:1005B000C80082FD07C08091CE006FE274E00E9407
:1005C000750202C08091CE00FF91EF91BF91AF9173
:1005D0009F918F917F916F915F914F913F912F915B
:1005E0000F900BBE0F900FBE0F901F90189508959F
:1005F0001F920F920FB60F9211240BB60F922F93EA
:100600003F934F935F936F937F938F939F93AF939A
:10061000BF93EF93FF938091D00082FD07C080913C
:10062000D60067EA73E00E94750202C08091D6008E
:10063000FF91EF91BF91AF919F918F917F916F91BA
:100640005F914F913F912F910F900BBE0F900FBE76
:100650000F901F90189508951F920F920FB60F924A
:1006600011240BB60F922F933F934F935F936F9389
:100670007F938F939F93AF93BF93EF93FF9380915B
:10068000300182FD07C0809136016FE173E00E9466
:10069000750202C080913601FF91EF91BF91AF9139
:1006A0009F918F917F916F915F914F913F912F918A
:1006B0000F900BBE0F900FBE0F901F90189589EBF7
:1006C00092E00E94DC01892B11F00E948F0287E9E1
:1006D00092E00E94DC01892B11F00E94C30285E7A1
:1006E00092E00E94DC01892B11F00E94F70283E561
:1006F00092E00E94DC01892B11F00C942B030895E9
:100700001F920F920FB60F9211240BB60F922F93D8
:100710003F938F939F93EF93FF932091B304309176
:10072000B4048091B5049091B6042817390731F4C8
:100730008091C1008F7D8093C10014C0E091B50409
:10074000F091B604ED58FB4F20818091B504909153
:10075000B60401968F7399279093B6048093B504DD
:100760002093C600FF91EF919F918F913F912F9120
:100770000F900BBE0F900FBE0F901F9018951F92F9
:100780000F920FB60F9211240BB60F922F933F9337
:100790008F939F93EF93FF9320912B0430912C0420
:1007A00080912D0490912E042817390731F48091FF
:1007B000C9008F7D8093C90014C0E0912D04F09191
:1007C0002E04E551FC4F208180912D0490912E0440
:1007D00001968F73992790932E0480932D04209374
:1007E000CE00FF91EF919F918F913F912F910F90AC
:1007F0000BBE0F900FBE0F901F9018951F920F9277
:100800000FB60F9211240BB60F922F933F938F9335
:100810009F93EF93FF932091A3033091A4038091C2
:10082000A5039091A6032817390731F48091D100D0
:100830008F7D8093D10014C0E091A503F091A603B1
:10084000ED59FC4F20818091A5039091A60301965C
:100850008F7399279093A6038093A5032093D600C6
:10086000FF91EF919F918F913F912F910F900BBE30
:100870000F900FBE0F901F9018951F920F920FB6FA
:100880000F9211240BB60F922F933F938F939F9348
:10089000EF93FF9320911B0330911C0380911D0364
:1008A00090911E032817390731F4809131018F7D13
:1008B0008093310114C0E0911D03F0911E03E552B5
:1008C000FD4F208180911D0390911E0301968F732F
:1008D000992790931E0380931D0320933601FF9167
:1008E000EF919F918F913F912F910F900BBE0F90A1
:1008F0000FBE0F901F901895CF92DF92EF92FF924C
:100900000F931F93CF93DF93EC016A017B01411595
:10091000514E6105710509F1EC89FD8981E090E096
:1009200008A002C0880F991F0A94E2F7808360E054
:1009300079E08DE390E0A70196010E944D068901C0
:100940009A0101501109210931093695279517950A
:100950000795980101151041A8F0EC89FD891082D6
:1009600060E874E88EE190E0A70196010E944D06D0
:10097000DA01C9010197A109B109B695A795979523
:1009800087959C01E889F9893083EA89FB8920836E
:1009900019A2EE89FF89408181E090E09C010C8CD6
:1009A00002C0220F331F0A94E2F7242B2083EE8922
:1009B000FF8940819C010D8C02C0220F331F0A94D5
:1009C000E2F7242B2083EE89FF8940819C010E8C65
:1009D00002C0220F331F0A94E2F7242B2083EE89F2
:1009E000FF8920810F8C02C0880F991F0A94E2F7BB
:1009F000809582238083DF91CF911F910F91FF908B
:100A0000EF90DF90CF900895CF92DF92EF92FF9218
:100A1000E9EBF2E01382128288EEC82E83E0D82E32
:100A2000E12CF12CC482D582E682F78269E072E083
:100A30007183608387EB94E09587848783E794E0F4
:100A40009787868785EC90E0918B808B84EC90E093
:100A5000938B828B80EC90E0958B848B81EC90E083
:100A6000978B868B82EC90E0918F808F86EC90E064
:100A7000938F828F44E0448F33E0358F27E0268FB9
:100A800095E0978F81E080A3E7E9F2E0138212827C
:100A9000C482D582E682F78271836083AFE2B4E0DC
:100AA000B587A487ABEEB3E0B787A687ADECB0E01F
:100AB000B18BA08BACECB0E0B38BA28BA8ECB0E018
:100AC000B58BA48BA9ECB0E0B78BA68BAAECB0E0F9
:100AD000B18FA08FAEECB0E0B38FA28F448F358F73
:100AE000268F978F80A3E5E7F2E013821282C482FB
:100AF000D582E682F78271836083A7EAB3E0B58787
:100B0000A487A3E6B3E0B787A687A5EDB0E0B18BD5
:100B1000A08BA4EDB0E0B38BA28BA0EDB0E0B58BC1
:100B2000A48BA1EDB0E0B78BA68BA2EDB0E0B18FA6
:100B3000A08FA6EDB0E0B38FA28F448F358F268FA4
:100B4000978F80A3E3E5F2E013821282C482D582FC
:100B5000E682F782718360836FE173E07587648753
:100B60006BED72E07787668765E371E0718B608B70
:100B700064E371E0738B628B60E371E0758B648B6F
:100B800061E371E0778B668B62E371E0718F608F58
:100B900066E371E0738F628F448F358F268F978F56
:100BA00080A3FF90EF90DF90CF900895CF92DF92D7
:100BB000EF92FF920F931F93CF93DF936C01EB01A2
:100BC0007B01E40EF51E00E010E0CE15DF0561F0BC
:100BD0006991D601ED91FC910190F081E02DC60163
:100BE0001995080F191FF1CFC801DF91CF911F91FF
:100BF0000F91FF90EF90DF90CF90089561157105F0
:100C000079F0FB0101900020E9F73197AF01461B15
:100C1000570BDC01ED91FC910280F381E02D1994DA
:100C200080E090E00895DC01ED91FC910190F0816D
:100C3000E02D19940F931F93CF93DF93EC016DE098
:100C40000E9413068C016AE0CE010E941306800FF9
:100C5000911FDF91CF911F910F9108950F931F93D3
:100C6000CF93DF93EC010E94FE058C01CE010E9420
:100C70001A06800F911FDF91CF911F910F91089558
:100C80000E947A010E94B600CFE5D3E00E94BE0028
:100C90002097E1F30E945F03F9CFA1E21A2EAA1B6D
:100CA000BB1BFD010DC0AA1FBB1FEE1FFF1FA2171C
:100CB000B307E407F50720F0A21BB30BE40BF50B19
:100CC000661F771F881F991F1A9469F760957095A2
:100CD000809590959B01AC01BD01CF010895EE0F69
:100CE000FF1F881F8BBF0790F691E02D19940F937B
:100CF0001F93CF93DF93CDB7DEB72E970FB6F8943F
:100D0000DEBF0FBECDBF0E891F8986E08C831A839C
:100D100009838FEF9FE79E838D83AE01465E5F4F11
:100D2000688D798DCE0101960E94A7062F813885A6
:100D3000F801E20FF31F10822E960FB6F894DEBF73
:100D40000FBECDBFDF91CF911F910F9108952F92CC
:100D50003F924F925F926F927F928F929F92AF924B
:100D6000BF92CF92DF92EF92FF920F931F93CF9398
:100D7000DF93CDB7DEB72C970FB6F894DEBF0FBE6A
:100D8000CDBF7C016B018A01FC0117821682838131
:100D900081FFBDC1CE0101964C01F7019381F6019F
:100DA00093FD859193FF81916F01882309F4ABC175
:100DB000853239F493FD859193FF81916F018532DE
:100DC00029F4B70190E00E94B808E7CF512C312CEC
:100DD00020E02032A0F48B3269F030F4803259F0F8
:100DE000833269F420612CC08D3239F0803339F4BC
:100DF000216026C02260246023C0286021C027FD16
:100E000027C030ED380F3A3078F426FF06C0FAE0FC
:100E10005F9E300D1124532E13C08AE0389E300D92
:100E20001124332E20620CC08E3221F426FD6BC1BA
:100E3000206406C08C3611F4206802C0883641F464
:100E4000F60193FD859193FF81916F018111C1CFCF
:100E5000982F9F7D9554933028F40C5F1F4FFFE32C
:100E6000F9830DC0833631F0833771F0833509F093
:100E70005BC022C0F801808189830E5F1F4F44242C
:100E80004394512C540115C03801F2E06F0E711CCF
:100E9000F801A080B18026FF03C0652D70E002C07C
:100EA0006FEF7FEFC5012C870E94AD082C018301F5
:100EB0002C852F77222E17C03801F2E06F0E711C9F
:100EC000F801A080B18026FF03C0652D70E002C04C
:100ED0006FEF7FEFC5012C870E94A2082C012C85A3
:100EE0002068222E830123FC1BC0832D90E048162E
:100EF0005906B0F4B70180E290E00E94B8083A9435
:100F0000F4CFF50127FC859127FE81915F01B701A0
:100F100090E00E94B80831103A94F1E04F1A51085D
:100F20004114510471F7E5C0843611F0893639F562
:100F3000F80127FF07C060817181828193810C5F76
:100F40001F4F08C060817181072E000C880B990B20
:100F50000E5F1F4F2F76722E97FF09C090958095D8
:100F6000709561957F4F8F4F9F4F2068722E2AE0BA
:100F700030E0A4010E94F008A82EA81844C08537CC
:100F800029F42F7EB22E2AE030E025C0F22FF97F1F
:100F9000BF2E8F36C1F018F4883579F0B4C0803791
:100FA00019F0883721F0AFC02F2F2061B22EB4FE88
:100FB0000DC08B2D8460B82E09C024FF0AC09F2F5E
:100FC0009660B92E06C028E030E005C020E130E090
:100FD00002C020E132E0F801B7FE07C060817181F4
:100FE000828193810C5F1F4F06C06081718180E018
:100FF00090E00E5F1F4FA4010E94F008A82EA818D1
:10100000FB2DFF777F2E76FE0BC0372D3E7FA5147C
:1010100050F474FE0AC072FC08C0372D3E7E05C035
:10102000BA2C372D03C0BA2C01C0B52C34FF0DC02B
:10103000FE01EA0DF11D8081803311F4397E09C073
:1010400032FF06C0B394B39404C0832F867809F0AE
:10105000B39433FD13C030FF06C05A2CB31418F4F8
:10106000530C5B18B32CB31468F4B70180E290E022
:101070003C870E94B808B3943C85F5CFB31410F4B4
:101080003B1801C0312C34FF12C0B70180E390E05F
:101090003C870E94B8083C8532FF17C031FD03C071
:1010A00088E790E002C088E590E0B7010CC0832F8C
:1010B000867859F031FF02C08BE201C080E237FD33
:1010C0008DE2B70190E00E94B808A51438F4B7018A
:1010D00080E390E00E94B8085A94F7CFAA94F401F4
:1010E000EA0DF11D8081B70190E00E94B808A110BF
:1010F000F5CF332009F451CEB70180E290E00E9491
:10110000B8083A94F6CFF7018681978102C08FEF35
:101110009FEF2C960FB6F894DEBF0FBECDBFDF91C8
:10112000CF911F910F91FF90EF90DF90CF90BF90E4
:10113000AF909F908F907F906F905F904F903F9077
:101140002F900895FC010590615070400110D8F770
:10115000809590958E0F9F1F0895FC0161507040FF
:1011600001900110D8F7809590958E0F9F1F0895DC
:101170000F931F93CF93DF93FB01238121FD03C0C6
:101180008FEF9FEF28C022FF16C046815781248130
:1011900035814217530744F4A081B1819D012F5F2F
:1011A0003F4F318320838C93268137812F5F3F4FC0
:1011B0003783268310C0EB01092F182F0084F18597
:1011C000E02D1995892BE1F68E819F8101969F83F1
:1011D0008E83812F902FDF91CF911F910F910895D2
:1011E000FA01AA27283051F1203181F1E8946F9358
:1011F0006E7F6E5F7F4F8F4F9F4FAF4FB1E03ED0FE
:10120000B4E03CD0670F781F891F9A1FA11D680F9B
:10121000791F8A1F911DA11D6A0F711D811D911DCE
:10122000A11D20D009F468943F912AE0269F112443
:101230003019305D3193DEF6CF010895462F4770A7
:10124000405D4193B3E00FD0C9F7F6CF462F4F7002
:10125000405D4A3318F0495D31FD4052419302D060
:10126000A9F7EACFB4E0A695979587957795679506
:10127000BA95C9F700976105710508959B01AC0106
:101280000A2E06945795479537952795BA95C9F72D
:10129000620F731F841F951FA01D0895F894FFCF40
:1012A0002530325800000000003302D605DC01086A
:0612B00002EC012802001F
:00000001FF
